S01800005072656C61626F7261746F72696F20352E73726563F2
S11300000C9434000C9446000C9446000C94460066
S11300100C9446000C9446000C9446000C94460044
S11300200C9446000C9446000C9446000C94460034
S11300300C9446000C9446000C9446000C94460024
S11300400C9423010C9446000C9446000C94460036
S11300500C9446000C945A000C9446000C944600F0
S11300600C9446000C94460011241FBECFEFD8E038
S1130070DEBFCDBF21E0A0E0B1E001C01D92A930F8
S1130080B207E1F70E94B0000C94A6010C940000A2
S1130090ACE7B0E080E48C93EAE7F0E08FE880839B
S11300A0809100019C918770892B8C93808180645E
S11300B0808308951F920F920FB60F9211245F93BD
S11300C06F937F938F939F93AF93BF93EF93FF931C
S11300D080910001813069F018F0823099F01AC0E3
S11300E080917800909179009093060180930501A6
S11300F011C08091780090917900909308018093C9
S1130100070108C0809178009091790090930401D0
S1130110809303018091000190E0019663E070E018
S11301200E944D0180930001ECE7F0E09081809102
S11301300001907F8770892B8083EAE7F0E080815B
S113014080648083FF91EF91BF91AF919F918F91D4
S11301507F916F915F910F900FBE0F901F90189534
S11301600E9448000E94F0000E94FD000E940601C7
S11301700E940F0178942091050130910601A0EDB1
S1130180B7E00E9483010F2ECC24CA94F3E0DF2E43
S1130190E12CF12CF02DA70196010E946101C90107
S11301A08C509E4F0E94010120910701309108015B
S11301B0A0EDB7E00E948301A70196010E946101AE
S11301C0C9018C509E4F0E940A01809103019091B5
S11301D0040196958795969587950E941A01CBCF31
S11301E082EA8093800082E18093810080E29EE431
S11301F09093870080938600089584B1826084B9C7
S113020008959093890080938800089584B1846050
S113021084B9089590938B0080938A0008958AB1DD
S113022080628AB914BC83E085BD81E080936E004E
S113023016BC08958F3F910519F010F08FEF90E0F0
S11302408093010108951F920F920FB60F9211240B
S11302508F939F9380910201811103C08BB18062BF
S11302608BB99091020180910101981303C08BB165
S11302708F7D8BB9809102018F5F80930201809101
S113028002018F3F11F41092020116BC9F918F91CD
S11302900F900FBE0F901F90189597FB072E16F422
S11302A0009407D077FD09D00E94920107FC05D085
S11302B03EF4909581959F4F0895709561957F4F79
S11302C00895A1E21A2EAA1BBB1BFD010DC0AA1F93
S11302D0BB1FEE1FFF1FA217B307E407F50720F0AB
S11302E0A21BB30BE40BF50B661F771F881F991F26
S11302F01A9469F760957095809590959B01AC016F
S1130300BD01CF010895A29FB001B39FC001A39F77
S1130310700D811D1124911DB29F700D811D11243A
S1130320911D0895AA1BBB1B51E107C0AA1FBB1F47
S1130330A617B70710F0A61BB70B881F991F5A956D
S1130340A9F780959095BC01CD010895F894FFCF4D
S9030000FC
