S01800005072656C61626F7261746F72696F20352E73726563F2
S11300000C9434000C943E000C943E000C943E007E
S11300100C943E000C943E000C943E000C943E0064
S11300200C943E000C943E000C943E000C943E0054
S11300300C943E000C943E000C943E000C943E0044
S11300400C943E000C943E000C943E000C943E0034
S11300500C943E000C943E000C943E000C943E0024
S11300600C943E000C943E0011241FBECFEFD8E048
S1130070DEBFCDBF0E945C000C94BA000C9400005B
S113008080E480937C0087E880937A000895ECE70D
S1130090F0E09081987F8770892B8083EAE7F0E015
S11300A080818064808380917A0086FDFCCF80917A
S11300B078009091790008950E9474000E94400095
S11300C080E00E9447009C01A8EEB3E00E94AB00D0
S11300D02FEF33E040E050E00E948900C9018851CD
S11300E09C4F0E948400ECCF84B1826084B980E884
S11300F08093800082E18093810080E29EE490936B
S113010087008093860008959093890080938800E7
S11301100895A1E21A2EAA1BBB1BFD010DC0AA1F44
S1130120BB1FEE1FFF1FA217B307E407F50720F05C
S1130130A21BB30BE40BF50B661F771F881F991FD7
S11301401A9469F760957095809590959B01AC0120
S1130150BD01CF010895A29FB001B39FC001A39F29
S1130160700D811D1124911DB29F700D811D1124EC
S10B0170911D0895F894FFCFDE
S9030000FC
