S01800005072656C61626F7261746F72696F20352E73726563F2
S11300000C9434000C9446000C9446000C94460066
S11300100C9446000C9446000C9446000C94460044
S11300200C9446000C9446000C9446000C94460034
S11300300C9446000C9446000C9446000C94460024
S11300400C9446000C9446000C9446000C94460014
S11300500C9446000C945A000C9446000C944600F0
S11300600C9446000C94460011241FBECFEFD8E038
S1130070DEBFCDBF21E0A0E0B1E001C01D92A730FA
S1130080B207E1F70E94B9000C946F010C940000D0
S1130090ACE7B0E080E48C93EAE7F0E08FE880839B
S11300A0809100019C918770892B8C93808180645E
S11300B0808308951F920F920FB60F9211245F93BD
S11300C06F937F938F939F93AF93BF93EF93FF931C
S11300D080910001813069F018F0823099F01BC0E2
S11300E080917800909179009093040180930301AA
S11300F01AC08091780090917900909306018093C2
S1130100050111C0809178009091790090930201CB
S11301108093010108C080917800909179009093B8
S11301200401809303018091000190E0019663E053
S113013070E00E94160180930001ECE7F0E09081EA
S113014080910001907F8770892B8083EAE7F0E03B
S1130150808180648083FF91EF91BF91AF919F91E3
S11301608F917F916F915F910F900FBE0F901F90B1
S113017018950E9448000E94F3007894209103018E
S113018030910401A0EDB7E00E944C010F2ECC2465
S1130190CA94F3E0DF2EE12CF12CF02DA701960197
S11301A00E942A01C9018C509E4F0E940A0120918D
S11301B0050130910601A0EDB7E00E944C01A701B2
S11301C096010E942A01C9018C509E4F0E940F0182
S11301D08091010190910201969587959695879556
S11301E00E941401CBCF84B1866084B982EA8093E3
S11301F0800082E18093810080E29EE490938700F6
S1130200809386008AB180628AB983E284BD83E0E8
S113021085BD0895909389008093880008959093F4
S11302208B0080938A00089588BD089597FB072E5C
S113023016F4009407D077FD09D00E945B0107FCF7
S113024005D03EF4909581959F4F089570956195E2
S11302507F4F0895A1E21A2EAA1BBB1BFD010DC0FE
S1130260AA1FBB1FEE1FFF1FA217B307E407F50762
S113027020F0A21BB30BE40BF50B661F771F881F3E
S1130280991F1A9469F760957095809590959B01D4
S1130290AC01BD01CF010895A29FB001B39FC0017D
S11302A0A39F700D811D1124911DB29F700D811D9E
S11302B01124911D0895AA1BBB1B51E107C0AA1F5D
S11302C0BB1FA617B70710F0A61BB70B881F991FF3
S11302D05A95A9F780959095BC01CD010895F8949D
S10502E0FFCF4A
S9030000FC
